{
  "contractName": "ElefantVonHinten",
  "abi": [
    {
      "inputs": [
        {
          "internalType": "string",
          "name": "name",
          "type": "string"
        },
        {
          "internalType": "string",
          "name": "symbol",
          "type": "string"
        },
        {
          "internalType": "string",
          "name": "baseTokenURI_",
          "type": "string"
        },
        {
          "internalType": "uint256",
          "name": "maxTokens_",
          "type": "uint256"
        },
        {
          "internalType": "uint256",
          "name": "maxMints_",
          "type": "uint256"
        },
        {
          "internalType": "uint256",
          "name": "tokenPrice_",
          "type": "uint256"
        }
      ],
      "stateMutability": "nonpayable",
      "type": "constructor"
    },
    {
      "anonymous": false,
      "inputs": [
        {
          "indexed": true,
          "internalType": "address",
          "name": "owner",
          "type": "address"
        },
        {
          "indexed": true,
          "internalType": "address",
          "name": "approved",
          "type": "address"
        },
        {
          "indexed": true,
          "internalType": "uint256",
          "name": "tokenId",
          "type": "uint256"
        }
      ],
      "name": "Approval",
      "type": "event"
    },
    {
      "anonymous": false,
      "inputs": [
        {
          "indexed": true,
          "internalType": "address",
          "name": "owner",
          "type": "address"
        },
        {
          "indexed": true,
          "internalType": "address",
          "name": "operator",
          "type": "address"
        },
        {
          "indexed": false,
          "internalType": "bool",
          "name": "approved",
          "type": "bool"
        }
      ],
      "name": "ApprovalForAll",
      "type": "event"
    },
    {
      "anonymous": false,
      "inputs": [
        {
          "indexed": true,
          "internalType": "address",
          "name": "from",
          "type": "address"
        },
        {
          "indexed": true,
          "internalType": "address",
          "name": "to",
          "type": "address"
        },
        {
          "indexed": true,
          "internalType": "uint256",
          "name": "tokenId",
          "type": "uint256"
        }
      ],
      "name": "Transfer",
      "type": "event"
    },
    {
      "inputs": [
        {
          "internalType": "address",
          "name": "to",
          "type": "address"
        },
        {
          "internalType": "uint256",
          "name": "tokenId",
          "type": "uint256"
        }
      ],
      "name": "approve",
      "outputs": [],
      "stateMutability": "nonpayable",
      "type": "function"
    },
    {
      "inputs": [
        {
          "internalType": "address",
          "name": "owner",
          "type": "address"
        }
      ],
      "name": "balanceOf",
      "outputs": [
        {
          "internalType": "uint256",
          "name": "",
          "type": "uint256"
        }
      ],
      "stateMutability": "view",
      "type": "function"
    },
    {
      "inputs": [],
      "name": "baseTokenURI",
      "outputs": [
        {
          "internalType": "string",
          "name": "",
          "type": "string"
        }
      ],
      "stateMutability": "view",
      "type": "function"
    },
    {
      "inputs": [
        {
          "internalType": "uint256",
          "name": "tokenId",
          "type": "uint256"
        }
      ],
      "name": "getApproved",
      "outputs": [
        {
          "internalType": "address",
          "name": "operator",
          "type": "address"
        }
      ],
      "stateMutability": "view",
      "type": "function"
    },
    {
      "inputs": [
        {
          "internalType": "address",
          "name": "owner",
          "type": "address"
        },
        {
          "internalType": "address",
          "name": "operator",
          "type": "address"
        }
      ],
      "name": "isApprovedForAll",
      "outputs": [
        {
          "internalType": "bool",
          "name": "",
          "type": "bool"
        }
      ],
      "stateMutability": "view",
      "type": "function"
    },
    {
      "inputs": [],
      "name": "maxMints",
      "outputs": [
        {
          "internalType": "uint256",
          "name": "",
          "type": "uint256"
        }
      ],
      "stateMutability": "view",
      "type": "function"
    },
    {
      "inputs": [],
      "name": "maxTokens",
      "outputs": [
        {
          "internalType": "uint256",
          "name": "",
          "type": "uint256"
        }
      ],
      "stateMutability": "view",
      "type": "function"
    },
    {
      "inputs": [],
      "name": "name",
      "outputs": [
        {
          "internalType": "string",
          "name": "",
          "type": "string"
        }
      ],
      "stateMutability": "view",
      "type": "function"
    },
    {
      "inputs": [
        {
          "internalType": "uint256",
          "name": "tokenId",
          "type": "uint256"
        }
      ],
      "name": "ownerOf",
      "outputs": [
        {
          "internalType": "address",
          "name": "",
          "type": "address"
        }
      ],
      "stateMutability": "view",
      "type": "function"
    },
    {
      "inputs": [
        {
          "internalType": "address",
          "name": "from",
          "type": "address"
        },
        {
          "internalType": "address",
          "name": "to",
          "type": "address"
        },
        {
          "internalType": "uint256",
          "name": "tokenId",
          "type": "uint256"
        }
      ],
      "name": "safeTransferFrom",
      "outputs": [],
      "stateMutability": "nonpayable",
      "type": "function"
    },
    {
      "inputs": [
        {
          "internalType": "address",
          "name": "from",
          "type": "address"
        },
        {
          "internalType": "address",
          "name": "to",
          "type": "address"
        },
        {
          "internalType": "uint256",
          "name": "tokenId",
          "type": "uint256"
        },
        {
          "internalType": "bytes",
          "name": "data",
          "type": "bytes"
        }
      ],
      "name": "safeTransferFrom",
      "outputs": [],
      "stateMutability": "nonpayable",
      "type": "function"
    },
    {
      "inputs": [
        {
          "internalType": "address",
          "name": "operator",
          "type": "address"
        },
        {
          "internalType": "bool",
          "name": "_approved",
          "type": "bool"
        }
      ],
      "name": "setApprovalForAll",
      "outputs": [],
      "stateMutability": "nonpayable",
      "type": "function"
    },
    {
      "inputs": [
        {
          "internalType": "bytes4",
          "name": "interfaceId",
          "type": "bytes4"
        }
      ],
      "name": "supportsInterface",
      "outputs": [
        {
          "internalType": "bool",
          "name": "",
          "type": "bool"
        }
      ],
      "stateMutability": "view",
      "type": "function"
    },
    {
      "inputs": [],
      "name": "symbol",
      "outputs": [
        {
          "internalType": "string",
          "name": "",
          "type": "string"
        }
      ],
      "stateMutability": "view",
      "type": "function"
    },
    {
      "inputs": [],
      "name": "tokenPrice",
      "outputs": [
        {
          "internalType": "uint256",
          "name": "",
          "type": "uint256"
        }
      ],
      "stateMutability": "view",
      "type": "function"
    },
    {
      "inputs": [
        {
          "internalType": "uint256",
          "name": "tokenId",
          "type": "uint256"
        }
      ],
      "name": "tokenURI",
      "outputs": [
        {
          "internalType": "string",
          "name": "",
          "type": "string"
        }
      ],
      "stateMutability": "view",
      "type": "function"
    },
    {
      "inputs": [],
      "name": "totalSupply",
      "outputs": [
        {
          "internalType": "uint256",
          "name": "",
          "type": "uint256"
        }
      ],
      "stateMutability": "view",
      "type": "function"
    },
    {
      "inputs": [
        {
          "internalType": "address",
          "name": "from",
          "type": "address"
        },
        {
          "internalType": "address",
          "name": "to",
          "type": "address"
        },
        {
          "internalType": "uint256",
          "name": "tokenId",
          "type": "uint256"
        }
      ],
      "name": "transferFrom",
      "outputs": [],
      "stateMutability": "nonpayable",
      "type": "function"
    },
    {
      "inputs": [
        {
          "internalType": "uint256",
          "name": "numberOfTokens",
          "type": "uint256"
        }
      ],
      "name": "mintElefants",
      "outputs": [],
      "stateMutability": "payable",
      "type": "function"
    }
  ],
  "bytecode": "0x60806040523480156200001157600080fd5b5060405162002f2638038062002f2683398181016040528101906200003791906200032f565b8585816000908051906020019062000051929190620000a7565b5080600190805190602001906200006a929190620000a7565b50505082600681905550816007819055508060088190555083600a90805190602001906200009a929190620000a7565b505050505050506200048d565b828054620000b59062000457565b90600052602060002090601f016020900481019282620000d9576000855562000125565b82601f10620000f457805160ff191683800117855562000125565b8280016001018555821562000125579182015b828111156200012457825182559160200191906001019062000107565b5b50905062000134919062000138565b5090565b5b808211156200015357600081600090555060010162000139565b5090565b6000604051905090565b600080fd5b600080fd5b600080fd5b600080fd5b6000601f19601f8301169050919050565b7f4e487b7100000000000000000000000000000000000000000000000000000000600052604160045260246000fd5b620001c08262000175565b810181811067ffffffffffffffff82111715620001e257620001e162000186565b5b80604052505050565b6000620001f762000157565b9050620002058282620001b5565b919050565b600067ffffffffffffffff82111562000228576200022762000186565b5b620002338262000175565b9050602081019050919050565b60005b838110156200026057808201518184015260208101905062000243565b8381111562000270576000848401525b50505050565b60006200028d62000287846200020a565b620001eb565b905082815260208101848484011115620002ac57620002ab62000170565b5b620002b984828562000240565b509392505050565b600082601f830112620002d957620002d86200016b565b5b8151620002eb84826020860162000276565b91505092915050565b6000819050919050565b6200030981620002f4565b81146200031557600080fd5b50565b6000815190506200032981620002fe565b92915050565b60008060008060008060c087890312156200034f576200034e62000161565b5b600087015167ffffffffffffffff81111562000370576200036f62000166565b5b6200037e89828a01620002c1565b965050602087015167ffffffffffffffff811115620003a257620003a162000166565b5b620003b089828a01620002c1565b955050604087015167ffffffffffffffff811115620003d457620003d362000166565b5b620003e289828a01620002c1565b9450506060620003f589828a0162000318565b93505060806200040889828a0162000318565b92505060a06200041b89828a0162000318565b9150509295509295509295565b7f4e487b7100000000000000000000000000000000000000000000000000000000600052602260045260246000fd5b600060028204905060018216806200047057607f821691505b6020821081141562000487576200048662000428565b5b50919050565b612a89806200049d6000396000f3fe6080604052600436106101145760003560e01c806370a08231116100a0578063b88d4fde11610064578063b88d4fde146103a4578063c87b56dd146103cd578063d547cfb71461040a578063e831574214610435578063e985e9c51461046057610114565b806370a08231146102bd5780637ff9b596146102fa57806395d89b4114610325578063a22cb46514610350578063b6b6f0c31461037957610114565b806318160ddd116100e757806318160ddd146101e757806323b872dd146102125780633a14d30a1461023b57806342842e0e146102575780636352211e1461028057610114565b806301ffc9a71461011957806306fdde0314610156578063081812fc14610181578063095ea7b3146101be575b600080fd5b34801561012557600080fd5b50610140600480360381019061013b9190611a9e565b61049d565b60405161014d9190611ae6565b60405180910390f35b34801561016257600080fd5b5061016b61057f565b6040516101789190611b9a565b60405180910390f35b34801561018d57600080fd5b506101a860048036038101906101a39190611bf2565b610611565b6040516101b59190611c60565b60405180910390f35b3480156101ca57600080fd5b506101e560048036038101906101e09190611ca7565b61064e565b005b3480156101f357600080fd5b506101fc6108eb565b6040516102099190611cf6565b60405180910390f35b34801561021e57600080fd5b5061023960048036038101906102349190611d11565b6108f1565b005b61025560048036038101906102509190611bf2565b610901565b005b34801561026357600080fd5b5061027e60048036038101906102799190611d11565b610a42565b005b34801561028c57600080fd5b506102a760048036038101906102a29190611bf2565b610a62565b6040516102b49190611c60565b60405180910390f35b3480156102c957600080fd5b506102e460048036038101906102df9190611d64565b610b14565b6040516102f19190611cf6565b60405180910390f35b34801561030657600080fd5b5061030f610bcc565b60405161031c9190611cf6565b60405180910390f35b34801561033157600080fd5b5061033a610bd2565b6040516103479190611b9a565b60405180910390f35b34801561035c57600080fd5b5061037760048036038101906103729190611dbd565b610c64565b005b34801561038557600080fd5b5061038e610d61565b60405161039b9190611cf6565b60405180910390f35b3480156103b057600080fd5b506103cb60048036038101906103c69190611e62565b610d67565b005b3480156103d957600080fd5b506103f460048036038101906103ef9190611bf2565b610dbe565b6040516104019190611b9a565b60405180910390f35b34801561041657600080fd5b5061041f610e1d565b60405161042c9190611b9a565b60405180910390f35b34801561044157600080fd5b5061044a610eab565b6040516104579190611cf6565b60405180910390f35b34801561046c57600080fd5b5061048760048036038101906104829190611eea565b610eb1565b6040516104949190611ae6565b60405180910390f35b60007f80ac58cd000000000000000000000000000000000000000000000000000000007bffffffffffffffffffffffffffffffffffffffffffffffffffffffff1916827bffffffffffffffffffffffffffffffffffffffffffffffffffffffff1916148061056857507f5b5e139f000000000000000000000000000000000000000000000000000000007bffffffffffffffffffffffffffffffffffffffffffffffffffffffff1916827bffffffffffffffffffffffffffffffffffffffffffffffffffffffff1916145b80610578575061057782610f45565b5b9050919050565b60606000805461058e90611f59565b80601f01602080910402602001604051908101604052809291908181526020018280546105ba90611f59565b80156106075780601f106105dc57610100808354040283529160200191610607565b820191906000526020600020905b8154815290600101906020018083116105ea57829003601f168201915b5050505050905090565b60006004600083815260200190815260200160002060009054906101000a900473ffffffffffffffffffffffffffffffffffffffff169050919050565b600061065982610a62565b90508073ffffffffffffffffffffffffffffffffffffffff168373ffffffffffffffffffffffffffffffffffffffff1614156106ca576040517f08c379a00000000000000000000000000000000000000000000000000000000081526004016106c190611ffd565b60405180910390fd5b8073ffffffffffffffffffffffffffffffffffffffff163373ffffffffffffffffffffffffffffffffffffffff16148061076257506004600083815260200190815260200160002060009054906101000a900473ffffffffffffffffffffffffffffffffffffffff1673ffffffffffffffffffffffffffffffffffffffff163373ffffffffffffffffffffffffffffffffffffffff16145b806107fa575060011515600560008373ffffffffffffffffffffffffffffffffffffffff1673ffffffffffffffffffffffffffffffffffffffff16815260200190815260200160002060003373ffffffffffffffffffffffffffffffffffffffff1673ffffffffffffffffffffffffffffffffffffffff16815260200190815260200160002060009054906101000a900460ff161515145b610839576040517f08c379a00000000000000000000000000000000000000000000000000000000081526004016108309061208f565b60405180910390fd5b826004600084815260200190815260200160002060006101000a81548173ffffffffffffffffffffffffffffffffffffffff021916908373ffffffffffffffffffffffffffffffffffffffff160217905550818373ffffffffffffffffffffffffffffffffffffffff168273ffffffffffffffffffffffffffffffffffffffff167f8c5be1e5ebec7d5bd14f71427d1e84f3dd0314c0f7b2291e5b200ac8c7c3b92560405160405180910390a4505050565b60095481565b6108fc838383610faf565b505050565b600754811115610946576040517f08c379a000000000000000000000000000000000000000000000000000000000815260040161093d90612121565b60405180910390fd5b600654816009546109579190612170565b1115610998576040517f08c379a000000000000000000000000000000000000000000000000000000000815260040161098f90612238565b60405180910390fd5b34816008546109a79190612258565b11156109e8576040517f08c379a00000000000000000000000000000000000000000000000000000000081526004016109df90612324565b60405180910390fd5b60005b81811015610a3e576006546009541015610a2b57610a12610a0a611337565b60095461133f565b60096000815480929190610a2590612344565b91905055505b8080610a3690612344565b9150506109eb565b5050565b610a5d8383836040518060200160405280600081525061135d565b505050565b6000806003600084815260200190815260200160002060009054906101000a900473ffffffffffffffffffffffffffffffffffffffff169050600073ffffffffffffffffffffffffffffffffffffffff168173ffffffffffffffffffffffffffffffffffffffff161415610b0b576040517f08c379a0000000000000000000000000000000000000000000000000000000008152600401610b02906123ff565b60405180910390fd5b80915050919050565b60008073ffffffffffffffffffffffffffffffffffffffff168273ffffffffffffffffffffffffffffffffffffffff161415610b85576040517f08c379a0000000000000000000000000000000000000000000000000000000008152600401610b7c90612491565b60405180910390fd5b600260008373ffffffffffffffffffffffffffffffffffffffff1673ffffffffffffffffffffffffffffffffffffffff168152602001908152602001600020549050919050565b60085481565b606060018054610be190611f59565b80601f0160208091040260200160405190810160405280929190818152602001828054610c0d90611f59565b8015610c5a5780601f10610c2f57610100808354040283529160200191610c5a565b820191906000526020600020905b815481529060010190602001808311610c3d57829003601f168201915b5050505050905090565b80600560003373ffffffffffffffffffffffffffffffffffffffff1673ffffffffffffffffffffffffffffffffffffffff16815260200190815260200160002060008473ffffffffffffffffffffffffffffffffffffffff1673ffffffffffffffffffffffffffffffffffffffff16815260200190815260200160002060006101000a81548160ff0219169083151502179055508173ffffffffffffffffffffffffffffffffffffffff163373ffffffffffffffffffffffffffffffffffffffff167f17307eab39ab6107e8899845ad3d59bd9653f200f220920489ca2b5937696c3183604051610d559190611ae6565b60405180910390a35050565b60075481565b610db785858585858080601f016020809104026020016040519081016040528093929190818152602001838380828437600081840152601f19601f8201169050808301925050505050505061135d565b5050505050565b60606000610dca6114a1565b90506000815111610dea5760405180602001604052806000815250610e15565b80610df484611533565b604051602001610e05929190612585565b6040516020818303038152906040525b915050919050565b600a8054610e2a90611f59565b80601f0160208091040260200160405190810160405280929190818152602001828054610e5690611f59565b8015610ea35780601f10610e7857610100808354040283529160200191610ea3565b820191906000526020600020905b815481529060010190602001808311610e8657829003601f168201915b505050505081565b60065481565b6000600560008473ffffffffffffffffffffffffffffffffffffffff1673ffffffffffffffffffffffffffffffffffffffff16815260200190815260200160002060008373ffffffffffffffffffffffffffffffffffffffff1673ffffffffffffffffffffffffffffffffffffffff16815260200190815260200160002060009054906101000a900460ff16905092915050565b60007f01ffc9a7000000000000000000000000000000000000000000000000000000007bffffffffffffffffffffffffffffffffffffffffffffffffffffffff1916827bffffffffffffffffffffffffffffffffffffffffffffffffffffffff1916149050919050565b806000610fbb82610a62565b90503373ffffffffffffffffffffffffffffffffffffffff168173ffffffffffffffffffffffffffffffffffffffff16148061105557503373ffffffffffffffffffffffffffffffffffffffff166004600084815260200190815260200160002060009054906101000a900473ffffffffffffffffffffffffffffffffffffffff1673ffffffffffffffffffffffffffffffffffffffff16145b806110ed575060011515600560008373ffffffffffffffffffffffffffffffffffffffff1673ffffffffffffffffffffffffffffffffffffffff16815260200190815260200160002060003373ffffffffffffffffffffffffffffffffffffffff1673ffffffffffffffffffffffffffffffffffffffff16815260200190815260200160002060009054906101000a900460ff161515145b61112c576040517f08c379a000000000000000000000000000000000000000000000000000000000815260040161112390612631565b60405180910390fd5b600073ffffffffffffffffffffffffffffffffffffffff168573ffffffffffffffffffffffffffffffffffffffff16141580156111965750600073ffffffffffffffffffffffffffffffffffffffff168473ffffffffffffffffffffffffffffffffffffffff1614155b6111d5576040517f08c379a00000000000000000000000000000000000000000000000000000000081526004016111cc906126c3565b60405180910390fd5b6001600260008773ffffffffffffffffffffffffffffffffffffffff1673ffffffffffffffffffffffffffffffffffffffff168152602001908152602001600020600082825461122591906126e3565b925050819055506001600260008673ffffffffffffffffffffffffffffffffffffffff1673ffffffffffffffffffffffffffffffffffffffff168152602001908152602001600020600082825461127c9190612170565b92505081905550836003600085815260200190815260200160002060006101000a81548173ffffffffffffffffffffffffffffffffffffffff021916908373ffffffffffffffffffffffffffffffffffffffff160217905550828473ffffffffffffffffffffffffffffffffffffffff168673ffffffffffffffffffffffffffffffffffffffff167fddf252ad1be2c89b69c2b068fc378daa952ba7f163c4a11628f55a4df523b3ef60405160405180910390a45050505050565b600033905090565b611359828260405180602001604052806000815250611694565b5050565b611368848484610faf565b6113878373ffffffffffffffffffffffffffffffffffffffff166117d6565b1561149b5760008373ffffffffffffffffffffffffffffffffffffffff1663150b7a02338686866040518563ffffffff1660e01b81526004016113cd949392919061276c565b6020604051808303816000875af11580156113ec573d6000803e3d6000fd5b505050506040513d601f19601f8201168201806040525081019061141091906127cd565b905063150b7a0260e01b7bffffffffffffffffffffffffffffffffffffffffffffffffffffffff1916817bffffffffffffffffffffffffffffffffffffffffffffffffffffffff191614611499576040517f08c379a000000000000000000000000000000000000000000000000000000000815260040161149090612846565b60405180910390fd5b505b50505050565b6060600a80546114b090611f59565b80601f01602080910402602001604051908101604052809291908181526020018280546114dc90611f59565b80156115295780601f106114fe57610100808354040283529160200191611529565b820191906000526020600020905b81548152906001019060200180831161150c57829003601f168201915b5050505050905090565b6060600082141561157b576040518060400160405280600181526020017f3000000000000000000000000000000000000000000000000000000000000000815250905061168f565b600082905060005b600082146115ad57808061159690612344565b915050600a826115a69190612895565b9150611583565b60008167ffffffffffffffff8111156115c9576115c86128c6565b5b6040519080825280601f01601f1916602001820160405280156115fb5781602001600182028036833780820191505090505b5090505b600085146116885760018261161491906126e3565b9150600a8561162391906128f5565b603061162f9190612170565b60f81b81838151811061164557611644612926565b5b60200101907effffffffffffffffffffffffffffffffffffffffffffffffffffffffffffff1916908160001a905350600a856116819190612895565b94506115ff565b8093505050505b919050565b61169e8383611821565b6116bd8373ffffffffffffffffffffffffffffffffffffffff166117d6565b156117d15760008373ffffffffffffffffffffffffffffffffffffffff1663150b7a02338686866040518563ffffffff1660e01b8152600401611703949392919061276c565b6020604051808303816000875af1158015611722573d6000803e3d6000fd5b505050506040513d601f19601f8201168201806040525081019061174691906127cd565b905063150b7a0260e01b7bffffffffffffffffffffffffffffffffffffffffffffffffffffffff1916817bffffffffffffffffffffffffffffffffffffffffffffffffffffffff1916146117cf576040517f08c379a00000000000000000000000000000000000000000000000000000000081526004016117c690612846565b60405180910390fd5b505b505050565b60008060007fc5d2460186f7233c927e7db2dcc703c0e500b653ca82273b7bfad8045d85a47060001b9050833f91506000801b82141580156118185750808214155b92505050919050565b600073ffffffffffffffffffffffffffffffffffffffff166003600083815260200190815260200160002060009054906101000a900473ffffffffffffffffffffffffffffffffffffffff1673ffffffffffffffffffffffffffffffffffffffff16146118c3576040517f08c379a00000000000000000000000000000000000000000000000000000000081526004016118ba906129a1565b60405180910390fd5b600073ffffffffffffffffffffffffffffffffffffffff168273ffffffffffffffffffffffffffffffffffffffff161415611933576040517f08c379a000000000000000000000000000000000000000000000000000000000815260040161192a90612a33565b60405180910390fd5b6001600260008473ffffffffffffffffffffffffffffffffffffffff1673ffffffffffffffffffffffffffffffffffffffff16815260200190815260200160002060008282546119839190612170565b92505081905550816003600083815260200190815260200160002060006101000a81548173ffffffffffffffffffffffffffffffffffffffff021916908373ffffffffffffffffffffffffffffffffffffffff160217905550808273ffffffffffffffffffffffffffffffffffffffff16600073ffffffffffffffffffffffffffffffffffffffff167fddf252ad1be2c89b69c2b068fc378daa952ba7f163c4a11628f55a4df523b3ef60405160405180910390a45050565b600080fd5b600080fd5b60007fffffffff0000000000000000000000000000000000000000000000000000000082169050919050565b611a7b81611a46565b8114611a8657600080fd5b50565b600081359050611a9881611a72565b92915050565b600060208284031215611ab457611ab3611a3c565b5b6000611ac284828501611a89565b91505092915050565b60008115159050919050565b611ae081611acb565b82525050565b6000602082019050611afb6000830184611ad7565b92915050565b600081519050919050565b600082825260208201905092915050565b60005b83811015611b3b578082015181840152602081019050611b20565b83811115611b4a576000848401525b50505050565b6000601f19601f8301169050919050565b6000611b6c82611b01565b611b768185611b0c565b9350611b86818560208601611b1d565b611b8f81611b50565b840191505092915050565b60006020820190508181036000830152611bb48184611b61565b905092915050565b6000819050919050565b611bcf81611bbc565b8114611bda57600080fd5b50565b600081359050611bec81611bc6565b92915050565b600060208284031215611c0857611c07611a3c565b5b6000611c1684828501611bdd565b91505092915050565b600073ffffffffffffffffffffffffffffffffffffffff82169050919050565b6000611c4a82611c1f565b9050919050565b611c5a81611c3f565b82525050565b6000602082019050611c756000830184611c51565b92915050565b611c8481611c3f565b8114611c8f57600080fd5b50565b600081359050611ca181611c7b565b92915050565b60008060408385031215611cbe57611cbd611a3c565b5b6000611ccc85828601611c92565b9250506020611cdd85828601611bdd565b9150509250929050565b611cf081611bbc565b82525050565b6000602082019050611d0b6000830184611ce7565b92915050565b600080600060608486031215611d2a57611d29611a3c565b5b6000611d3886828701611c92565b9350506020611d4986828701611c92565b9250506040611d5a86828701611bdd565b9150509250925092565b600060208284031215611d7a57611d79611a3c565b5b6000611d8884828501611c92565b91505092915050565b611d9a81611acb565b8114611da557600080fd5b50565b600081359050611db781611d91565b92915050565b60008060408385031215611dd457611dd3611a3c565b5b6000611de285828601611c92565b9250506020611df385828601611da8565b9150509250929050565b600080fd5b600080fd5b600080fd5b60008083601f840112611e2257611e21611dfd565b5b8235905067ffffffffffffffff811115611e3f57611e3e611e02565b5b602083019150836001820283011115611e5b57611e5a611e07565b5b9250929050565b600080600080600060808688031215611e7e57611e7d611a3c565b5b6000611e8c88828901611c92565b9550506020611e9d88828901611c92565b9450506040611eae88828901611bdd565b935050606086013567ffffffffffffffff811115611ecf57611ece611a41565b5b611edb88828901611e0c565b92509250509295509295909350565b60008060408385031215611f0157611f00611a3c565b5b6000611f0f85828601611c92565b9250506020611f2085828601611c92565b9150509250929050565b7f4e487b7100000000000000000000000000000000000000000000000000000000600052602260045260246000fd5b60006002820490506001821680611f7157607f821691505b60208210811415611f8557611f84611f2a565b5b50919050565b7f4552524f523a20746f2061646472657373206973207468652063757272656e7460008201527f206f776e65720000000000000000000000000000000000000000000000000000602082015250565b6000611fe7602683611b0c565b9150611ff282611f8b565b604082019050919050565b6000602082019050818103600083015261201681611fda565b9050919050565b7f4552524f523a206d73672e73656e646572206e6f7420616c6c6f77656420746f60008201527f20617070726f7665000000000000000000000000000000000000000000000000602082015250565b6000612079602883611b0c565b91506120848261201d565b604082019050919050565b600060208201905081810360008301526120a88161206c565b9050919050565b7f4552524f523a206f6e6c7920757020746f206d61784d696e747320746f6b656e60008201527f20616c6c6f77656420746f206265206d696e7465640000000000000000000000602082015250565b600061210b603583611b0c565b9150612116826120af565b604082019050919050565b6000602082019050818103600083015261213a816120fe565b9050919050565b7f4e487b7100000000000000000000000000000000000000000000000000000000600052601160045260246000fd5b600061217b82611bbc565b915061218683611bbc565b9250827fffffffffffffffffffffffffffffffffffffffffffffffffffffffffffffffff038211156121bb576121ba612141565b5b828201905092915050565b7f4552524f523a206d6178696d756d20616d6f756e74206f6620746f6b656e732060008201527f68617320616c7265616479206265206d696e7465640000000000000000000000602082015250565b6000612222603583611b0c565b915061222d826121c6565b604082019050919050565b6000602082019050818103600083015261225181612215565b9050919050565b600061226382611bbc565b915061226e83611bbc565b9250817fffffffffffffffffffffffffffffffffffffffffffffffffffffffffffffffff04831182151516156122a7576122a6612141565b5b828202905092915050565b7f4552524f523a206e6f7420656e6f7567682065746865722073656e7420746f2060008201527f6d696e7420616c6c20746f6b656e730000000000000000000000000000000000602082015250565b600061230e602f83611b0c565b9150612319826122b2565b604082019050919050565b6000602082019050818103600083015261233d81612301565b9050919050565b600061234f82611bbc565b91507fffffffffffffffffffffffffffffffffffffffffffffffffffffffffffffffff82141561238257612381612141565b5b600182019050919050565b7f4552524f523a206974207365656d73206c696b65207468697320746f6b656e4960008201527f6420646f6573206e6f7420657869737400000000000000000000000000000000602082015250565b60006123e9603083611b0c565b91506123f48261238d565b604082019050919050565b60006020820190508181036000830152612418816123dc565b9050919050565b7f4552524f523a206f776e6572206d75737420626520612076616c69642061646460008201527f7265737300000000000000000000000000000000000000000000000000000000602082015250565b600061247b602483611b0c565b91506124868261241f565b604082019050919050565b600060208201905081810360008301526124aa8161246e565b9050919050565b600081905092915050565b60006124c782611b01565b6124d181856124b1565b93506124e1818560208601611b1d565b80840191505092915050565b7f2f00000000000000000000000000000000000000000000000000000000000000600082015250565b60006125236001836124b1565b915061252e826124ed565b600182019050919050565b7f2e706e6700000000000000000000000000000000000000000000000000000000600082015250565b600061256f6004836124b1565b915061257a82612539565b600482019050919050565b600061259182856124bc565b915061259c82612516565b91506125a882846124bc565b91506125b382612562565b91508190509392505050565b7f4552524f523a206d73672e73656e646572206e6f7420616c6c6f77656420746f60008201527f207472616e66657220746f6b656e496400000000000000000000000000000000602082015250565b600061261b603083611b0c565b9150612626826125bf565b604082019050919050565b6000602082019050818103600083015261264a8161260e565b9050919050565b7f4552524f523a205f66726f6d202626205f746f206d757374206265206120766160008201527f6c69642061646472657373000000000000000000000000000000000000000000602082015250565b60006126ad602b83611b0c565b91506126b882612651565b604082019050919050565b600060208201905081810360008301526126dc816126a0565b9050919050565b60006126ee82611bbc565b91506126f983611bbc565b92508282101561270c5761270b612141565b5b828203905092915050565b600081519050919050565b600082825260208201905092915050565b600061273e82612717565b6127488185612722565b9350612758818560208601611b1d565b61276181611b50565b840191505092915050565b60006080820190506127816000830187611c51565b61278e6020830186611c51565b61279b6040830185611ce7565b81810360608301526127ad8184612733565b905095945050505050565b6000815190506127c781611a72565b92915050565b6000602082840312156127e3576127e2611a3c565b5b60006127f1848285016127b8565b91505092915050565b7f4552524f523a20746f2063616e6e6f742068616e646c65204552433732310000600082015250565b6000612830601e83611b0c565b915061283b826127fa565b602082019050919050565b6000602082019050818103600083015261285f81612823565b9050919050565b7f4e487b7100000000000000000000000000000000000000000000000000000000600052601260045260246000fd5b60006128a082611bbc565b91506128ab83611bbc565b9250826128bb576128ba612866565b5b828204905092915050565b7f4e487b7100000000000000000000000000000000000000000000000000000000600052604160045260246000fd5b600061290082611bbc565b915061290b83611bbc565b92508261291b5761291a612866565b5b828206905092915050565b7f4e487b7100000000000000000000000000000000000000000000000000000000600052603260045260246000fd5b7f4552524f523a205f746f6b656e496420616c7265616479206578697374730000600082015250565b600061298b601e83611b0c565b915061299682612955565b602082019050919050565b600060208201905081810360008301526129ba8161297e565b9050919050565b7f4552524f523a205f746f206d7573742062652076616c6964206164647265737360008201527f202d2063616e6e6f742062652061646472657373283029000000000000000000602082015250565b6000612a1d603783611b0c565b9150612a28826129c1565b604082019050919050565b60006020820190508181036000830152612a4c81612a10565b905091905056fea2646970667358221220c8b84480aa4d0aa02aad1a6fe86b781248f6912b27946546da556257d43f05d364736f6c634300080a0033",
  "immutableReferences": {},
  "source": "//SPDX-License-Identifier: MIT\r\npragma solidity 0.8.10;\r\n\r\nimport \"./MyERC721.sol\";\r\nimport \"./Context.sol\";\r\n\r\ncontract ElefantVonHinten is MyERC721, Context {\r\n  uint256 public maxTokens; // Maximum of tokens to be minted\r\n  uint256 public maxMints; // Maximum of tokens to be minted at a time\r\n  uint256 public tokenPrice;\r\n  uint256 public totalSupply;\r\n\r\n  string public baseTokenURI;\r\n\r\n  /**\r\n   * @dev All state variables are initialized in the constructor.\r\n   * To be more flexible one could define setter functions for each state variable and call them in the constructor.\r\n   * We will keep it as simple as possible here.\r\n   */\r\n  constructor(\r\n    string memory name,\r\n    string memory symbol,\r\n    string memory baseTokenURI_,\r\n    uint256 maxTokens_,\r\n    uint256 maxMints_,\r\n    uint256 tokenPrice_\r\n  ) MyERC721(name, symbol) {\r\n    maxTokens = maxTokens_;\r\n    maxMints = maxMints_;\r\n    tokenPrice = tokenPrice_;\r\n    baseTokenURI = baseTokenURI_;\r\n  }\r\n\r\n  /**\r\n   * @dev Overrides the corresponding internal function in MyERC721\r\n   * the resulting URI for each token will be the concatenation of the `baseTokenURI` and the `tokenId`.\r\n   */\r\n  function _baseURI() internal view override returns (string memory) {\r\n    return baseTokenURI;\r\n  }\r\n\r\n  /**\r\n   * @dev Minting and token sale\r\n   * @param numberOfTokens - number of tokens to be minted\r\n   * Requirements\r\n   * - numberOfTokens must be inferior or equal to maxMints\r\n   * - totalSupply must stay inferior or equal to maxTokens\r\n   * - must send enough ether to pay all token minted\r\n   */\r\n  function mintElefants(uint256 numberOfTokens) external payable {\r\n    require(numberOfTokens <= maxMints, \"ERROR: only up to maxMints token allowed to be minted\");\r\n    require(totalSupply + numberOfTokens <= maxTokens, \"ERROR: maximum amount of tokens has already be minted\");\r\n    require(tokenPrice * numberOfTokens <= msg.value , \"ERROR: not enough ether sent to mint all tokens\");\r\n\r\n    for(uint i=0; i < numberOfTokens; i++) {\r\n      if(totalSupply < maxTokens) {\r\n        _safeMint(_msgSender(), totalSupply);\r\n        totalSupply++;\r\n      }\r\n    }\r\n\r\n  }\r\n\r\n\r\n\r\n\r\n}\r\n",
  "sourcePath": "C:/Rula01/01_Lernen/MyProjects/ElefantVonHintenNFT/contracts/ElefantVonHintenNFT.sol",
  "compiler": {
    "name": "solc",
    "version": "0.8.10+commit.fc410830.Emscripten.clang"
  },
  "schemaVersion": "3.3.4",
  "updatedAt": "2022-09-23T07:19:54.715Z",
  "devdoc": {
    "kind": "dev",
    "methods": {
      "approve(address,uint256)": {
        "details": "Gives permission to `to` to transfer `tokenId` token to another account. The approval is cleared when the token is transferred. Only a single account can be approved at a time, so approving the zero address clears previous approvals. Requirements: - The caller must own the token or be an approved operator. - `tokenId` must exist. Emits an {Approval} event."
      },
      "balanceOf(address)": {
        "details": "Returns the number of tokens in `owner's` account."
      },
      "constructor": {
        "details": "All state variables are initialized in the constructor. To be more flexible one could define setter functions for each state variable and call them in the constructor. We will keep it as simple as possible here."
      },
      "getApproved(uint256)": {
        "details": "Returns the account approved for `tokenId` token. Requirements: - `tokenId` must exist."
      },
      "isApprovedForAll(address,address)": {
        "details": "Returns if the `operator` is allowed to manage all of the assets of `owner`. See {setApprovalForAll}"
      },
      "mintElefants(uint256)": {
        "details": "Minting and token sale",
        "params": {
          "numberOfTokens": "- number of tokens to be minted Requirements - numberOfTokens must be inferior or equal to maxMints - totalSupply must stay inferior or equal to maxTokens - must send enough ether to pay all token minted"
        }
      },
      "name()": {
        "details": "Returns the token collection name."
      },
      "ownerOf(uint256)": {
        "details": "Returns the owner of the `tokenId` token. Requirements: - `tokenId` must exist."
      },
      "safeTransferFrom(address,address,uint256)": {
        "details": "Safely transfers `tokenId` token from `from` to `to`, checking first that contract recipients are aware of the ERC721 protocol to prevent tokens from being forever locked. Requirements: - `from` cannot be the zero address. - `to` cannot be the zero address. - `tokenId` token must exist and be owned by `from`. - If the caller is not `from`, it must have been allowed to move this token by either {approve} or {setApprovalForAll}. - If `to` refers to a smart contract, it must implement {IERC721Receiver-onERC721Received}, which is called upon a safe transfer. Emits a {Transfer} event."
      },
      "safeTransferFrom(address,address,uint256,bytes)": {
        "details": "Safely transfers `tokenId` token from `from` to `to`. Requirements: - `from` cannot be the zero address. - `to` cannot be the zero address. - `tokenId` token must exist and be owned by `from`. - If the caller is not `from`, it must be approved to move this token by either {approve} or {setApprovalForAll}. - If `to` refers to a smart contract, it must implement {IERC721Receiver-onERC721Received}, which is called upon a safe transfer. Emits a {Transfer} event."
      },
      "setApprovalForAll(address,bool)": {
        "details": "Approve or remove `operator` as an operator for the caller. Operators can call {transferFrom} or {safeTransferFrom} for any token owned by the caller. Requirements: - The `operator` cannot be the caller. Emits an {ApprovalForAll} event."
      },
      "supportsInterface(bytes4)": {
        "details": "See {ERC165-supportsInterface}."
      },
      "symbol()": {
        "details": "Returns the token collection symbol."
      },
      "tokenURI(uint256)": {
        "details": "Returns the Uniform Resource Identifier (URI) for `tokenId` token."
      },
      "transferFrom(address,address,uint256)": {
        "details": "Transfers `tokenId` token from `from` to `to`. WARNING: Usage of this method is discouraged, use {safeTransferFrom} whenever possible. Requirements: - `from` cannot be the zero address. - `to` cannot be the zero address. - `tokenId` token must be owned by `from`. - If the caller is not `from`, it must be approved to move this token by either {approve} or {setApprovalForAll}. Emits a {Transfer} event."
      }
    },
    "version": 1
  },
  "userdoc": {
    "kind": "user",
    "methods": {},
    "version": 1
  }
}